:020000040800F2
:10000000A0100020310800084D0800085108000821
:1000100055080008590800085D08000800000000A5
:10002000000000000000000000000000610800085F
:100030006508000800000000690800089B06000829
:100040006D080008710800087508000879080008A4
:100050007D08000881080008850800088908000854
:100060008D08000891080008950800089908000804
:100070009D080008A1080008A5080008A9080008B4
:10008000AD080008B1080008B5080008B908000864
:10009000BD080008C1080008C5080008C908000814
:1000A000CD080008D1080008D5080008D9080008C4
:1000B000DD080008E1080008E5080008E908000874
:1000C000ED080008F1080008F5080008F908000824
:1000D000FD080008010900080509000809090008D1
:1000E0000D09000811090008150900081909000880
:1000F0001D09000821090008250900082909000830
:100100002D090008310900083509000839090008DF
:100110003D0900084109000845090008490900088F
:100120004D0900085109000855090008590900083F
:1001300070B4002200250023002600240025CA7880
:1001400012F00F02CB78DB0601D58B781A430B78BF
:100150001B0621D00468002306E0CD78482D02D18B
:1001600001259D4005615B1C082B14D2012515FA61
:1001700003F60D883540B542F5D19E000F25B540F8
:10018000AC4312FA06F52C43CD78282DE5D1012594
:100190009D404561E7E704600B88FF2B26DD44683E
:1001A000002320E0012513F1080615FA06F60D8854
:1001B0003540B54216D19E000F25B540AC4312FA2A
:1001C00006F52C43CD78282D04D1012513F108061E
:1001D000B5404561CD78482D04D1012513F10806BD
:1001E000B54005615B1C082BDCD3446070BC7047D4
:1001F000D2B2002A02D089B2016101E089B2416124
:10020000704730B40022002400230024002802D5C7
:100210001C4A136801E01C4A1368C0F3034482B20D
:1002200010F44015B5F5401F08D133F07063164C3B
:10023000246834F07064144D2C6010E0C50206D5BB
:10024000032515FA04F4A34353F0706307E0440D4B
:10025000E4B2240112FA04F4A34353F07063C9B268
:10026000002905D0410DC9B2090112FA01F10B4371
:10027000002802D50348036001E00348036030BC56
:10028000704700001C0001400400014080B54E484A
:10029000006850F001004C4908604C4800684C4927
:1002A00008404A490860484800684A4908404649A9
:1002B00008604548006830F480204349086043489E
:1002C000006830F4FE00414908605FF41F004249B5
:1002D000086000F005F85FF000604049086001BD6B
:1002E00080B500F001F801BD82B00020019000202F
:1002F00000903548006850F4803033490860324837
:10030000006810F4003000900198401C01900098A3
:10031000002803D10198B0F5A06FF0D12A480068F9
:10032000800302D50120009001E000200090009899
:10033000012847D12A48006850F010002849086079
:100340002748006880088000254908602448006824
:1003500050F00200224908601C4800681B490860F0
:100360001A480068194908601848006850F480600D
:10037000164908601548006830F47C10134908607D
:100380001248006850F4E810104908600E480068F0
:1003900050F080700C4908600B4800688001FBD564
:1003A0000A4800688008800008490860074800681B
:1003B00050F00200054908600448006810F00C0085
:1003C0000828F9D102B07047001002400410024022
:1003D0000000FFF8FFFFF6FE0810024008ED00E005
:1003E0000020024010B50400206800F07DF820795C
:1003F000002801D1012000E000202168C0B200F0F7
:10040000DBF810BD10B504002069002820D0294871
:100410000068A168401A2169884207D3254800680E
:10042000A0602168207900F0C7F827E02148006823
:10043000A168401AE168884220D32079002801D1C0
:10044000012000E000202168C0B200F0B5F815E0FE
:10045000E068002812D017480068A168401AE168D7
:1004600088420BD32079002801D1012000E0002030
:100470002168C0B200F0A0F80020E06010BD70B5A7
:1004800004000D001600AC4208D23069002803D1E8
:100490003168307900F090F8F460356170BD80B556
:1004A0000A00044909689160D0601168107900F071
:1004B00083F801BD9800002010B50400200000F072
:1004C0000BF82079002801D1012000E000202168EC
:1004D000C0B200F071F810BD0021C16000210161BF
:1004E000002181607047000010B582B00400002C2C
:1004F00059D00121606800F06FF820682A498842CD
:1005000005D1012094F90910884008280AD02068F4
:10051000264988420ED1012094F909108840B0F58F
:10052000004F07D10121012000F056F80121204899
:10053000FFF767FE20681D49884206D1012094F923
:1005400009108840B0F5005F0AD02068174988423A
:100550000ED1012094F909108840B0F5804F07D1E1
:100560000121012000F038F801211248FFF749FE6F
:10057000012094F909108840ADF80000A07A8DF8A8
:100580000200E07A8DF8030069462068FFF7D0FD8D
:10059000E068002807D00121012000F01DF80121AA
:1005A000E068FFF72EFE13BD000C0140000801407B
:1005B000000230000004300080B50B00002B0AD090
:1005C0000200D2B2012093F909108840010089B2DB
:1005D0001868FFF70DFE01BDC9B2002905D0064914
:1005E000096808430449086005E00349096831EADD
:1005F00000000149086070471810024040B200280E
:1006000008D50901284A40B210F00F00801800F800
:10061000041C03E00901254A40B28154704780B5AB
:10062000411EB1F1807F01D301200EE0401E204920
:1006300008600F215FF0FF30FFF7E0FF00201D4949
:10064000086007201C490860002002BD10B50C009E
:100650001A49096880B2B1FBF0F0FFF7E0FF00280B
:1006600000D0FEE701215FF0FF30FFF7C7FFE4B2E3
:10067000002C01D000F001F810BD1148006850F0C6
:1006800080700F49086000200E4908600E4800681D
:1006900050F001000C49086070470C480068401C8D
:1006A0000A4908607047000018ED00E000E400E02F
:1006B00014E000E018E000E010E000E0900000200E
:1006C000FCED00E0041000E0001000E098000020C5
:1006D00080B500214FF47A70FFF7B8FF2148FFF78B
:1006E00081FE2148FFF77EFE2048FFF77BFE204871
:1006F000FFF778FE1B4941F28830FFF7D0FE1A4A17
:100700004FF4FA71C820FFF7BAFE184A4FF4FA61A5
:100710004FF4C870FFF7B3FE154A64213220FFF78B
:10072000AEFE1448006814490968401A05280FD322
:1007300010480068104908600A48FFF763FE0A483D
:10074000FFF760FE0948FFF75DFE0948FFF75AFE14
:100750000848006847F230518842E2D30448FFF766
:10076000ABFEDEE7400000205400002068000020BF
:100770007C000020980000209400002030B5016823
:1007800042688468091801EB5203D20748BF4C4401
:100790000C30994200D130BD11F9012B11F8015BE9
:1007A000002A04F8015B02D5521CF9D1F1E7521E70
:1007B000F4D5EEE710B5074979441831064C7C446E
:1007C000163404E00A68081D511888470146A14202
:1007D000F8D110BD0800000014000000A1FFFFFFC9
:1007E0007C010000B80000000000002000F00BF8C1
:1007F000002801D0FFF7DEFF0020C046C046FFF70B
:1008000067FF00F002F80120704700F001B8000017
:100810000746384600F002F8FBE7000080B5C04606
:10082000C046024A11001820ABBEFBE726000200BA
:1008300001488047014800478D0200084108000830
:10084000C046C046C046C046FFF7D0FFFFF7FEBF18
:10085000FFF7FEBFFFF7FEBFFFF7FEBFFFF7FEBFCC
:10086000FFF7FEBFFFF7FEBFFFF7FEBFFFF7FEBFBC
:10087000FFF7FEBFFFF7FEBFFFF7FEBFFFF7FEBFAC
:10088000FFF7FEBFFFF7FEBFFFF7FEBFFFF7FEBF9C
:10089000FFF7FEBFFFF7FEBFFFF7FEBFFFF7FEBF8C
:1008A000FFF7FEBFFFF7FEBFFFF7FEBFFFF7FEBF7C
:1008B000FFF7FEBFFFF7FEBFFFF7FEBFFFF7FEBF6C
:1008C000FFF7FEBFFFF7FEBFFFF7FEBFFFF7FEBF5C
:1008D000FFF7FEBFFFF7FEBFFFF7FEBFFFF7FEBF4C
:1008E000FFF7FEBFFFF7FEBFFFF7FEBFFFF7FEBF3C
:1008F000FFF7FEBFFFF7FEBFFFF7FEBFFFF7FEBF2C
:10090000FFF7FEBFFFF7FEBFFFF7FEBFFFF7FEBF1B
:10091000FFF7FEBFFFF7FEBFFFF7FEBFFFF7FEBF0B
:10092000FFF7FEBFFFF7FEBFFFF7FEBFFFF7FEBFFB
:10093000FFF7FEBFFFF7FEBFFFF7FEBFFFF7FEBFEB
:10094000FFF7FEBFFFF7FEBFFFF7FEBFFFF7FEBFDB
:10095000FFF7FEBFFFF7FEBFFFF7FEBF04000C016D
:100960004008FD000301070310FB00030C014008D1
:10097000FD000301060310FB00030C014008FD000D
:100980000301050310FB000314014020FD000303D5
:10099000020310F900012001F10004100000200101
:1009A000F100042000002001F100043000002001CB
:0809B000F00002A24A04F80065
:0400000508000841A6
:00000001FF
